:020000040000FA
:100000000C9436000C945E000C945E000C945E0020
:100010000C945E000C945E000C945E000C945E00E8
:100020000C945E000C945E000C945E000C945E00D8
:100030000C945E000C945E000C945E000C945E00C8
:100040000C94D6010C945E000C9446020C94200291
:100050000C945E000C945E000C945E000C945E00A8
:100060000C945E000C945E0078021F0411241FBEE5
:10007000CFEFD8E0DEBFCDBF21E0ACE1B1E001C001
:100080001D92AC3CB207E1F711E0A0E0B1E0E8EC72
:10009000FCE002C005900D92AC31B107D9F710E039
:1000A000C5E3D0E004C02197FE010E945F04C43381
:1000B000D107C9F70E94EE020C9457060C94000079
:1000C0000895AF92BF92CF92DF92EF92FF920F937B
:1000D0001F93CF93DF936C017B018B01040F151FDE
:1000E000EB015E01AE18BF08C017D10759F0699146
:1000F000D601ED91FC910190F081E02DC6010995AA
:10010000892B79F7C501DF91CF911F910F91FF9056
:10011000EF90DF90CF90BF90AF900895FC01538D8A
:10012000448D252F30E0842F90E0821B930B5417D1
:1001300010F0CF96089501970895FC01918D828D5E
:10014000981761F0A28DAE0FBF2FB11D5D968C91F7
:10015000928D9F5F9F73928F90E008958FEF9FEF36
:1001600008952FB7F8948091210190912201A091D8
:100170002301B09124012FBF80932D0190932E0174
:10018000A0932F01B093300185E291E00E949D0081
:1001900097FF26C02FB7F8948091210190912201FA
:1001A000A0912301B09124012FBF40912D015091C6
:1001B0002E0160912F0170913001841B950BA60BCD
:1001C000B70B4091290150912A0160912B01709148
:1001D0002C0184179507A607B707B0F28FEF9FEFA2
:1001E0000895FC01918D828D981731F0828DE80F72
:1001F000F11D858D90E008958FEF9FEF0895FC012C
:10020000918D228D892F90E0805C9F4F821B9109F8
:100210008F739927089585E291E00E94FF0021E005
:10022000892B09F420E0822F089580E090E0892B4B
:1002300029F00E940B0181110C9400000895FC012B
:10024000A48DA80FB92FB11DA35ABF4F2C91848D37
:1002500090E001968F739927848FA689B7892C9394
:10026000A089B1898C91837080648C93938D848DE7
:10027000981306C00288F389E02D80818F7D8083EA
:100280000895EF92FF920F931F93CF93DF93EC01AA
:1002900081E0888F9B8D8C8D98131AC0E889F9892D
:1002A000808185FF15C09FB7F894EE89FF89608330
:1002B000E889F98980818370806480839FBF81E0B1
:1002C00090E0DF91CF911F910F91FF90EF900895F3
:1002D000F62E0B8D10E00F5F1F4F0F731127E02ECE
:1002E0008C8D8E110CC00FB607FCFACFE889F98906
:1002F000808185FFF5CFCE010E941F01F1CFEB8DEC
:10030000EC0FFD2FF11DE35AFF4FF0829FB7F894D9
:100310000B8FEA89FB8980818062CFCFCF93DF93F7
:10032000EC01888D8823B9F0AA89BB89E889F9890D
:100330008C9185FD03C0808186FD0DC00FB607FC42
:10034000F7CF8C9185FFF2CF808185FFEDCFCE0175
:100350000E941F01E9CFDF91CF9108950F931F9362
:10036000CF93DF93EC0188819981009759F02A811E
:100370003B812617370730F081E0DF91CF911F9145
:100380000F9108958B016F5F7F4F0E948A05009740
:1003900059F0998388831B830A832C813D81232B09
:1003A00059F7FC011082E8CF80E0E7CF1F920F924F
:1003B0000FB60F9211242F933F938F939F93AF9378
:1003C000BF938091210190912201A0912301B091CE
:1003D00024013091200123E0230F2D3758F5019699
:1003E000A11DB11D20932001809321019093220132
:1003F000A0932301B093240180911C0190911D01D1
:10040000A0911E01B0911F010196A11DB11D809305
:100410001C0190931D01A0931E01B0931F01BF9179
:10042000AF919F918F913F912F910F900FBE0F90A1
:100430001F90189526E8230F0296A11DB11DD2CF5B
:100440001F920F920FB60F9211242F933F934F9349
:100450005F936F937F938F939F93AF93BF93EF932C
:10046000FF9385E291E00E941F01FF91EF91BF9100
:10047000AF919F918F917F916F915F914F913F913C
:100480002F910F900FBE0F901F9018951F920F92F3
:100490000FB60F9211242F938F939F93EF93FF9397
:1004A000E0913501F09136018081E0913B01F091BE
:1004B0003C0182FD1BC0908180913E018F5F8F7354
:1004C00020913F01821741F0E0913E01F0E0EB5DA9
:1004D000FE4F958F80933E01FF91EF919F918F91F9
:1004E0002F910F900FBE0F901F9018958081F4CF21
:1004F000109228011092270188EE93E0A0E0B0E06E
:100500008093290190932A01A0932B01B0932C0191
:100510008AE091E0909326018093250185EC90E09C
:10052000909332018093310184EC90E090933401F8
:100530008093330180EC90E09093360180933501F5
:1005400081EC90E0909338018093370182EC90E049
:1005500090933A018093390186EC90E090933C01AE
:1005600080933B0110923E0110923F011092400196
:10057000109241011092C3011092C2011092C50164
:100580001092C4011092C7011092C60170E060E0A1
:1005900082EC91E00E94AE012091C2013091C30132
:1005A000811113C02115310519F0C9010E940105FF
:1005B0001092C3011092C2011092C7011092C6019D
:1005C0001092C5011092C40108951092C7011092B3
:1005D000C6016AE171E0C9010C945006CF93DF9324
:1005E000CDB7DEB728970FB6F894DEBF0FBECDBFEC
:1005F000789484B5826084BD84B5816084BD85B5FE
:10060000826085BD85B5816085BD80916E00816009
:1006100080936E00109281008091810082608093AF
:1006200081008091810081608093810080918000B1
:100630008160809380008091B10084608093B100DC
:100640008091B00081608093B00080917A008460D6
:1006500080937A0080917A00826080937A00809102
:100660007A00816080937A0080917A00806880931C
:100670007A001092C100E0913501F091360182E0DC
:100680008083E0913101F09132011082E0913301D9
:10069000F09134018FEC808310923D01E09139019B
:1006A000F0913A0186E08083E0913701F0913801C2
:1006B000808180618083E0913701F09138018081F1
:1006C00088608083E0913701F091380180818068F3
:1006D0008083E0913701F091380180818F7D8083A4
:1006E00080E0E82E80E0F82E85E291E00E94FF0095
:1006F000892B09F47FC01A8219821C821B821E82F8
:100700001D8270E060E0CE0101960E94AE01298159
:100710003A8181112EC02115310519F0C9010E94BD
:1007200001051A8219821E821D821C821B820E9470
:10073000B10097FD26C08536910519F18F83188683
:100740000D811E810F5F1F4FB801CE0101960E94DF
:10075000AE01882361F329813A818D819E81BE019A
:10076000695F7F4F820F931F0E9450061E830D8387
:10077000DECF1E821D826AE171E0C9010E9450062F
:10078000D6CF8091C2019091C301009709F440C077
:1007900069817A8161157105C9F14091C401509157
:1007A000C5012D813E814217530780F10E945006FA
:1007B0008D819E819093C7018093C6011E821D8208
:1007C00089819A81009711F00E9401054091C6012C
:1007D0005091C7016091C2017091C30185E291E01F
:1007E0000E94610042E050E068E171E085E291E042
:1007F0000E946100E114F10409F476CF0E940B011C
:10080000882309F471CF0E9400006ECF0E94010579
:1008100089819A819093C3018093C2018B819C81CD
:100820009093C5018093C4018D819E819093C701EF
:100830008093C6011A8219821C821B82BFCF8091CD
:10084000C2019091C301009711F00C940105089525
:100850002F923F924F925F926F927F928F929F92D0
:10086000AF92BF92CF92DF92EF92FF920F931F93BE
:10087000CF93DF93CDB7DEB7CA1BDB0B0FB6F8946F
:10088000DEBF0FBECDBF09942A88398848885F84AF
:100890006E847D848C849B84AA84B984C884DF8020
:1008A000EE80FD800C811B81AA81B981CE0FD11D04
:1008B0000FB6F894DEBF0FBECDBFED010895EE0F69
:1008C000FF1F0590F491E02D09940F931F93CF9390
:1008D000DF938230910510F482E090E0E091CA014C
:1008E000F091CB0130E020E0B0E0A0E0309799F447
:1008F0002115310509F44AC0281B390B2430310574
:10090000D8F58A819B816115710589F1FB0193837B
:100910008283FE0111C040815181028113814817F9
:100920005907E0F04817590799F4109761F01296AB
:100930000C93129713961C933296CF01DF91CF91AF
:100940001F910F9108950093CA011093CB01F4CF2A
:100950002115310551F04217530738F0A901DB0189
:100960009A01BD01DF01F801C1CFEF01F9CF9093EA
:10097000CB018093CA01CDCFFE01E20FF31F81931B
:1009800091932250310939832883D7CF2091C80110
:100990003091C901232B41F42091020130910301D0
:1009A0003093C9012093C8012091000130910101C9
:1009B0002115310541F42DB73EB740910401509106
:1009C0000501241B350BE091C801F091C901E21724
:1009D000F307A0F42E1B3F0B2817390778F0AC0162
:1009E0004E5F5F4F2417350748F04E0F5F1F50933F
:1009F000C9014093C801819391939FCFF0E0E0E05B
:100A00009CCFCF93DF930097E9F0FC0132971382DC
:100A10001282A091CA01B091CB01ED0130E020E03B
:100A20001097A1F420813181820F931F2091C8017A
:100A30003091C9012817390709F061C0F093C90145
:100A4000E093C801DF91CF910895EA01CE17DF0747
:100A5000E8F54A815B819E0141155105B1F7E90135
:100A6000FB83EA8349915991C40FD51FEC17FD0709
:100A700061F4808191810296840F951FE901998329
:100A80008883828193819B838A83F0E0E0E01296E1
:100A90008D919C9113970097B9F52D913C911197E9
:100AA000CD010296820F931F2091C8013091C90198
:100AB0002817390739F6309751F51092CB0110926B
:100AC000CA01B093C901A093C801BCCFD383C2832C
:100AD00040815181840F951FC817D90761F44E5F7B
:100AE0005F4F88819981480F591F518340838A81C4
:100AF0009B81938382832115310509F0B0CFF09358
:100B0000CB01E093CA019ECFFD01DC01C0CF13826F
:100B10001282D7CFB0E0A0E0E0E9F5E00C942A041F
:100B20008C01009751F4CB010E9465048C01C8012F
:100B3000CDB7DEB7E0E10C944604FC01E60FF71FE9
:100B40009C0122503109E217F30708F49DC0D90136
:100B5000CD91DC911197C617D70798F0C530D10514
:100B600030F3CE0104978617970708F3C61BD70BFF
:100B70002297C193D1936D937C93CF010E9401057D
:100B8000D6CF5B01AC1ABD0A4C018C0E9D1EA09104
:100B9000CA01B091CB01512C412CF12CE12C1097C2
:100BA00031F58091C8019091C9018815990509F026
:100BB0005CC04616570608F058C08091000190911D
:100BC0000101009741F48DB79EB740910401509107
:100BD0000501841B950BE817F90708F055C0F09341
:100BE000C901E093C801F90171836083A0CF8D91A1
:100BF0009C91119712966C90129713967C90139774
:100C0000A815B90559F56C0142E0C40ED11CCA14EF
:100C1000DB0420F1AC014A195B09DA011296159741
:100C200080F06282738251834083D9016D937C93FB
:100C3000E114F10471F0D7011396FC93EE9312972F
:100C400076CF22968C0F9D1FF90191838083F3014B
:100C5000EFCFF093CB01E093CA0169CF4816590654
:100C600008F42C017D01D3019ACFCB010E946504C9
:100C70007C01009749F0AE01B8010E944706C80107
:100C80000E940105870153CF10E000E050CFFB0127
:100C9000DC0102C001900D9241505040D8F70895F8
:100CA000FB01DC0101900D920020E1F7089510E0B6
:100CB000C5E3D0E004C0FE010E945F042196C63364
:100CC000D107C9F7F894FFCF0000CC0180000000E5
:100CD0000000410161008E008E01FF009D00F100C7
:040CE0000D0A0000F9
:107E0000112484B714BE81FFF0D085E080938100F7
:107E100082E08093C00088E18093C10086E0809377
:107E2000C20080E18093C4008EE0C9D0259A86E02C
:107E300020E33CEF91E0309385002093840096BBD3
:107E4000B09BFECF1D9AA8958150A9F7CC24DD24C4
:107E500088248394B5E0AB2EA1E19A2EF3E0BF2EE7
:107E6000A2D0813461F49FD0082FAFD0023811F036
:107E7000013811F484E001C083E08DD089C08234E0
:107E800011F484E103C0853419F485E0A6D080C0E4
:107E9000853579F488D0E82EFF2485D0082F10E0AE
:107EA000102F00270E291F29000F111F8ED06801E7
:107EB0006FC0863521F484E090D080E0DECF843638
:107EC00009F040C070D06FD0082F6DD080E0C81688
:107ED00080E7D80618F4F601B7BEE895C0E0D1E017
:107EE00062D089930C17E1F7F0E0CF16F0E7DF06D8
:107EF00018F0F601B7BEE89568D007B600FCFDCFD4
:107F0000A601A0E0B1E02C9130E011968C91119780
:107F100090E0982F8827822B932B1296FA010C0160
:107F200087BEE89511244E5F5F4FF1E0A038BF0790
:107F300051F7F601A7BEE89507B600FCFDCF97BE46
:107F4000E89526C08437B1F42ED02DD0F82E2BD052
:107F50003CD0F601EF2C8F010F5F1F4F84911BD097
:107F6000EA94F801C1F70894C11CD11CFA94CF0C13
:107F7000D11C0EC0853739F428D08EE10CD085E9AC
:107F80000AD08FE07ACF813511F488E018D01DD067
:107F900080E101D065CF982F8091C00085FFFCCF94
:107FA0009093C60008958091C00087FFFCCF809118
:107FB000C00084FD01C0A8958091C6000895E0E648
:107FC000F0E098E1908380830895EDDF803219F02E
:107FD00088E0F5DFFFCF84E1DECF1F93182FE3DFCA
:107FE0001150E9F7F2DF1F91089580E0E8DFEE27F6
:047FF000FF270994CA
:027FFE00040479
:00000001FF
